:100000000A128A11F02C00308A000408840A820740
:1000100000345034413454344834203431343A3488
:1000200020344F34523441344E3447344534003454
:100030005034413454344834203432343A34203447
:100040004F34523441344E34473445340034503404
:10005000413454344834203431343A342034473431
:100060005234453445344E340034503441345434E1
:100070004834203432343A3420344734523445340E
:1000800045344E34003450344134543448342034F0
:1000900031343A342034523445344434003450340A
:1000A000413454344834203432343A3420345234D5
:0600B00045344434003425
:1009A2003F340034063400345B3400344F340034B6
:1009B200663400346D3400347D3400347E088A009D
:1009C2007F088200DF240A128A118000840A040848
:1009D2007D0603190034FF0A0319FE0AE32CBE0147
:1009E200BF01C001C10183133E30FD000430FE008F
:1009F200D130FF00303084000A128A11E3240A1237
:100A02008A1183010A128A11A32EF001F101033027
:100A12007102E93003197002031C102D112D132DE0
:100A2200232D232D0130F0070318F10A0030F107BE
:100A320003307102E93003197002031C212D222DAB
:100A4200132D232D0800F600372D760884000A1294
:100A52008A1103200A128A110A128A11E3250A1244
:100A62008A110130F5007508F607372D76088400E3
:100A72000A128A1103200A128A110038031D422D1C
:100A8200432D262D442D080002300A128A11A62574
:100A92000A128A1128300A128A11A6250A128A110C
:100AA2000E300A128A11A6250A128A1106300A127B
:100AB2008A11A6250A128A1180300A128A11A625E5
:100AC2000A128A1101300A128A11A6250A128A1103
:100AD2000800203084003030F2000408F3000E30A9
:100AE200F4007208840083130008F500F20A730808
:100AF200840075088000F30AF40B722D063083120D
:100B02000313AE000030AF00AF1F882D892D8B2D4F
:100B1200A52DA52D2E08F2007207203E8400831316
:100B2200000888000A128A1120260A128A11FF3050
:100B320083120313AE070318AF0AFF30AF07AF1FCC
:100B4200A32DA42D8B2DA52D0800F40083120313D1
:100B52000710F030F200720885057408F2000430C4
:100B62000310F20CFF3E031DB12D72080F39F30082
:100B72007308850487140A128A1106250A128A113B
:100B82008312031387100A128A1106250A128A1188
:100B9200F030F200720883120313850574080F39CE
:100BA200F2007208850487140A128A1106250A12B5
:100BB2008A118312031387100A128A1106250A1258
:100BC2008A110800F400831203130714F030F200B4
:100BD200720885057408F20004300310F20CFF3E1F
:100BE200031DEE2D72080F39F30073088504871474
:100BF2000A128A1106250A128A1183120313871018
:100C02000A128A1106250A128A11F030F2007208BD
:100C120083120313850574080F39F20072088504E4
:100C220087140A128A1106250A128A1183120313E3
:100C320087100A128A1106250A128A110800F00189
:100C4200F1017108803AFF0080307F02031D2B2ED4
:100C52004D307002031C2E2E2F2E312E5F2E5F2E52
:100C620083120313861D362E372E3C2E0130BE0012
:100C72000030BF003C2E861F3F2E402E462E0130F4
:100C8200C0000030C100462E462E0B1D492E4A2EB2
:100C9200462E0B110130F0070318F10A0030F1075C
:100CA2007108803AFF0080307F02031D5A2E4D30BA
:100CB2007002031C5D2E5E2E312E5F2E0800831201
:100CC20003131215F001F1017108803AFF00803020
:100CD2007F02031D6E2E99307002031C712E722E3C
:100CE200742EA22EA22E83120313861D792E7A2E23
:100CF2007F2E0130BE000030BF007F2E861F822E65
:100D0200832E892E0130C0000030C100892E892E29
:100D12008C1C8C2E8D2E892E8C100130F00703181E
:100D2200F10A0030F1077108803AFF0080307F023B
:100D3200031D9D2E99307002031CA02EA12E742E2D
:100D4200A22E080083160313860183120313860161
:100D520083160313880187018501073081007B30E8
:100D6200831203139200861186130A128A114525F3
:100D72000A128A11BC2E831203133F083E04031D7C
:100D8200C32EC42E932F41084004031DC92ECA2E20
:100D9200932F0617061BCE2ED22E83120313061490
:100DA200D52E831203130610061106128612861020
:100DB20080300A128A11A6250A128A113B300A12C1
:100DC2008A1124250A128A11C0300A128A11A62514
:100DD2000A128A112D300A128A1124250A128A1146
:100DE2000A128A116A250A128A1183120313061340
:100DF2000610061106128616861A002F042F831279
:100E020003138614072F83120313861001300A126C
:100E12008A11A6250A128A1180300A128A11A62581
:100E22000A128A1101300A128A1124250A128A1121
:100E3200C0300A128A11A6250A128A1110300A122B
:100E42008A1124250A128A110A128A1160260A12AC
:100E52008A11831203130613061006150619322F80
:100E6200362F831203130616392F83120313061229
:100E72008612861001300A128A11A6250A128A11D8
:100E820080300A128A11A6250A128A111F300A120C
:100E92008A1124250A128A11C0300A128A11A62543
:100EA2000A128A1147300A128A1124250A128A115B
:100EB2000A128A116A250A128A118312031306136F
:100EC2000610061106128616861A682F6C2F8312D8
:100ED200031386146F2F83120313861001300A1234
:100EE2008A11A6250A128A1180300A128A11A625B1
:100EF2000A128A1101300A128A1124250A128A1151
:100F0200C0300A128A11A6250A128A1110300A125A
:100F12008A1124250A128A110A128A1160260A12DB
:100F22008A11932F0130831203133E063F040319E3
:100F32009B2F9C2FA32F013040064104031DA22F9B
:100F4200A32FBC2E861286100616061AA92FAD2FC5
:100F5200831203130614B02F8312031306100130F9
:100F62000A128A11A6250A128A1180300A128A11DF
:100F7200A6250A128A113B300A128A1124250A1266
:100F82008A11C0300A128A11A6250A128A11473024
:100F92000A128A1124250A128A110A128A116A2552
:100FA2000A128A11831203130612861601300A12DC
:100FB2008A11A6250A128A1180300A128A11A625E0
:100FC2000A128A113B300A128A1124250A128A1146
:100FD200C0300A128A11A6250A128A1110300A128A
:100FE2008A1124250A128A110A128A1160260A120B
:0E0FF2008A11FD2FBC2EBC2E0A128A11002877
:00000001FF
